:200000000C9463000C948B000C948B000C948B000C945E020C948B000C948B000C948B00DB
:200020000C948B000C94F5070C948B000C948B000C948B000C94BA070C948B000C948B00C1
:200040000C940C0E0C948B000C94FF100C9431110C948B000C9428080C948B000C948B00D9
:200060000C948B000C948B0000000008000201000003040700000000000000000102040802
:200080001020408001020408102001020408102004040404040404040202020202020303C0
:2000A000030303030000000023002600290000000000250028002B000000000024002700FF
:2000C0002A00C508611111241FBECFEFD8E0DEBFCDBF11E0A0E0B1E0E4ECF9E202C0059002
:2000E0000D92A433B107D9F722E0A4E3B1E001C01D92AE34B207E1F710E0C6ECD0E004C0EF
:200100002297FE010E94A613C23CD107C9F70E9414120C94E0140C94000081E08093540171
:2001200008950F931F93329B0BC00E94560E6093720170937301809374019093750114C05E
:200140000E94560E00917201109173012091740130917501AB01401B510B509369014093A0
:20016000680181E0809363011F910F9108950F931F93339B0BC00E94560E60936E017093F9
:200180006F01809370019093710114C00E94560E00916E0110916F01209170013091710196
:2001A000AB01401B510B509367014093660181E0809362011F910F9108950F931F93349B70
:2001C0000BC00E94560E60936A0170936B0180936C0190936D0111C00E94560E00916A019D
:2001E00010916B0120916C0130916D01AB01401B510B50936501409364011F910F910895D4
:2002000080918401882319F080911F0102C08091200180938A010895CF93DF93DC01FB0187
:200220002283518340831296CD91DC91139788819381892B888382818D7F813041F41596E9
:200240008C9115979381892B15968C93159782818150823040F416968C9116979381892B9F
:2002600016968C9316978091680014969C91892B80936800DF91CF910895EF92FF920F9366
:200280001F93CF93DF9300D000D0CDB7DEB78C01FC01E084F184E114F10489F0F70184815C
:2002A000861306C0B701C8010E940C0180E040C0F70185819681009711F07C01EFCF87E000
:2002C00090E02C834A835B8369830E942312DC0111961C921E9212961C9212972C814A8138
:2002E0005B816981009719F114966C93149712962C93129716961C921E921597E62FF0E098
:20030000E458FF4FE4911396EC931397F80180859185892B19F4B187A08703C0F701B683E4
:20032000A583BD01C8010E940C0181E001C08FEF0F900F900F900F90DF91CF911F910F9123
:20034000FF90EF900895242FE82FF0E0E057FF4FE491EE2399F06115710581F0E33019F0AB
:20036000E0E0F0E002C0E7E9F1E0A081B1819C919783AB01682FCF010C943D018FEF0895E4
:20038000CF93DF9390E0FC01E057FF4FE491EE2309F445C0E33019F0A0E0B0E002C0A7E991
:2003A000B1E0FC01E458FF4F84911896CD91DC9119972097A1F19B8198132DC09FB7F89408
:2003C0001296ED91FC91139720818095822380831296ED91FC9113978081811109C02091F8
:2003E000680014968C911497809582238093680015962C9115978B818095822315968C934A
:20040000159716962C9116978B818095822316968C939FBF04C00D80DE81C02DCACFDF9185
:20042000CF910895FF920F931F93CF93DF93EC012091A3018F813D819091A3014E81F090E2
:20044000A301F094F4229323F92A8227F8228091A3018F830885198501151105E1F0D801FA
:2004600013969C918F2D892381F08091A301892391E009F490E09093A101F80184818093B8
:20048000A2010190F081E02D0995D80115960D911C911697E1CF8BB39C81892349F08BB362
:2004A000892B8BBBE881F98180818093A301C0CFDF91CF911F910F91FF9008951F920F927A
:2004C0000FB60F9211242F933F934F935F936F937F938F939F93AF93BF93EF93FF93E09198
:2004E0009701F091980180818093A30187E991E00E941202FF91EF91BF91AF919F918F910B
:200500007F916F915F914F913F912F910F900FBE0F901F90189541E050E061E970E080E1B8
:200520000E94A30141E050E067EB70E081E10E94A30141E050E06DED70E082E10C94A30138
:2005400080E10E94C00181E10E94C00182E10C94C001AF92BF92CF92DF92EF92FF920F9336
:200560001F93CF93DF938091830160910D0170E081113EC080E090E01F921F92D1E0DF932C
:20058000CFEFCF93AA24A3944EEFB42ECC24CA94DC2C1FE7E12EF12C00E010E021E030E0AE
:2005A00040E050E00E94CC11709341016093400160910C0170E080E090E01F921F92DF9301
:2005C000CF93E12CF12C8701EA9420E830E040E050E00E94CC1170933F0160933E018DB7E9
:2005E0009EB708960FB6F8949EBF0FBE8DBF26C080E090E01F921F9221E02F932FEF2F9386
:20060000AA24A3942EEFB22ECC24CA94DC2C1FE7E12EF12C00E010E021E030E040E050E01F
:200620000E94CC11709341016093400170933F0160933E010F900F900F900F90DF91CF9101
:200640001F910F91FF90EF90DF90CF90BF90AF900895F89480916801909169019093190175
:200660008093180180916601909167019093170180931601809164019091650190931501B2
:2006800080931401789480911801909119019C01215233402737354048F0809112019091EE
:2006A0001301909319018093180104C0909313018093120180918301209118013091190162
:2006C000882341F081E08093620130931701209316012EC08091160190911701AC01415233
:2006E00053404737554048F08091100190911101909317018093160104C090931101809356
:2007000010018091140190911501AC01415253404737554048F080910E0190910F019093D9
:2007200015018093140104C090930F0180930E0180911401909115018D3D954024F081E0F1
:200740008093850102C01092850150918401809116019091170140918501552321F12C5DE5
:200760003540442391F04CED55E0481B590BCA01821B930B84529A4F9093190180931801B9
:20078000240F351F24523A4F1CC0AC01421B530B5093190140931801820F931F9093170128
:2007A0008093160112C0442381F048EB5BE0BA01621B730B9B01481B590B5093190140930E
:2007C000180130931701209316018091180190911901855B95408F34910530F48CED95E0D6
:2007E00090931901809318018091160190911701855B95408F34910530F48CED95E09093EC
:2008000017018093160180911801909119018D3677E097071CF08CE697E005C08C3494402B
:2008200034F48CE494E0909319018093180180911601909117018D3647E094071CF08CE6DF
:2008400097E005C08C34944034F48CE494E090931701809316010895AF92BF92CF92DF9256
:20086000EF92FF920F931F936091180170911901653086E07807D4F0882777FD8095982FB0
:200880001F921F9221E02F932FEF2F9359E1A52EB12CC12CD12C1CE6E12E17E0F12E00E078
:2008A00010E024E036E040E050E01FC0643B85E0780734F5882777FD8095982F2FEF2F9374
:2008C0002F932EEF2F9321E02F9337EEA32EBB24BA94CB2CDB2C1CE4E12E14E0F12E00E091
:2008E00010E024EB35E040E050E00E94CC1170934101609340010F900F900F900F9004C05C
:2009000010924101109240016091160170911701653086E07807D4F0882777FD8095982FB2
:200920001F921F9221E02F932FEF2F93B9E1AB2EB12CC12CD12C1CE6E12E17E0F12E00E071
:2009400010E024E036E040E050E01FC0643B85E0780734F5882777FD8095982F2FEF2F93D3
:200960002F932EEF2F9321E02F93F7EEAF2EBB24BA94CB2CDB2C1CE4E12E14E0F12E00E024
:2009800010E024EB35E040E050E00E94CC1170933F0160933E010F900F900F900F9004C0BF
:2009A00010923F0110923E011F910F91FF90EF90DF90CF90BF90AF900895F8948091760109
:2009C000909177019093610180936001809178019091790190935F0180935E0180917A01DF
:2009E00090917B0190935D0180935C01789480916001909161019C0127563109213333404D
:200A0000E0F421E020936301893423E092071CF088E493E005C0883B910534F488EB90E07D
:200A20009093610180936001809160019091610190935B0180935A0108C080915A01909186
:200A40005B01909361018093600180918301811104C080915701882361F08091600190915E
:200A6000610190935F0180935E0181E0809362012EC080915E0190915F019C012756310915
:200A800021333340E0F421E020936201893423E092071CF088E493E005C0883B910534F41A
:200AA00088EB90E090935F0180935E0180915E0190915F01909359018093580108C08091AB
:200AC00058019091590190935F0180935E0121E080915C0190915D01883B91050CF020E00A
:200AE0002093560108959F92AF92BF92CF92DF92EF92FF920F931F93CF93DF938091560118
:200B0000609160017091610181113DC0882777FD8095982F1F921F92D1E0DF93CFEFCF93ED
:200B2000A12CB12C6501A39418E4E12E13E0F12E00E010E028EB30E040E050E00E94CC118F
:200B4000709341016093400160915E0170915F01882777FD8095982F1F921F92DF93CF9336
:200B600028EB30E040E050E00E94CC1170933F0160933E018DB79EB708960FB6F8949EBF29
:200B80000FBE8DBF3EC0882777FD8095982FCFEFCF93CF93FEEF9F2E9F92D1E0DF93AA24E1
:200BA000AA94BA2C650118E4E12E13E0F12E00E010E028EB30E040E050E00E94CC117093C9
:200BC00041016093400160915E0170915F01882777FD8095982FCF93CF939F92DF9328EB75
:200BE00030E040E050E00E94CC1170933F0160933E018DB79EB708960FB6F8949EBF0FBEEF
:200C00008DBF8091860190918701029719F481E080938101DF91CF911F910F91FF90EF907D
:200C2000DF90CF90BF90AF909F900895F894809176019091770190936101809360018091D5
:200C400078019091790190935F0180935E0180917A0190917B0190935D0180935C01789465
:200C600021E080915C0190915D01863691050CF420E020931B0180916001909161019C01D3
:200C80002B503109293E3340E0F421E020936301893923E092071CF088E993E005C086360A
:200CA000910534F486E690E09093610180936001809160019091610190935B0180935A01BF
:200CC00008C080915A0190915B01909361018093600180915E0190915F019C012B50310927
:200CE000293E3340E0F421E020936201893923E092071CF088E993E005C08636910534F4A2
:200D000086E690E090935F0180935E0180915E0190915F01909359018093580108C080914F
:200D200058019091590190935F0180935E0180911B01882321F01092630110926201089559
:200D4000AF92BF92CF92DF92EF92FF920F931F93CF93DF9360915E0170915F016C3022E0A6
:200D60007207CCF0882777FD8095982F1F921F9221E02F932FEF2F93A12CB12C6501A394F3
:200D800018E9E12E13E0F12E00E010E02BE032E040E050E01CC0633F81E0780704F58827EE
:200DA00077FD8095982F2FEF2F932F932EEF2F9321E02F93AA24AA94BA2C650116E6E12E3C
:200DC000F12C00E010E023EF31E040E050E00E94CC11EB010F900F900F900F9002C0C0E06A
:200DE000D0E060916001709161016C3022E07207CCF0882777FD8095982F1F921F9221E059
:200E00002F932FEF2F93A12CB12C6501A39418E9E12E13E0F12E00E010E02BE032E040E0BA
:200E200050E01CC0633F81E07807FCF4882777FD8095982F2FEF2F932F932EEF2F9321E0B3
:200E40002F93AA24AA94BA2C650116E6E12EF12C00E010E023EF31E040E050E00E94CC118E
:200E60000F900F900F900F9002C060E070E0CE01861B970B90934101809340016C0F7D1FC2
:200E800070933F0160933E01811522E092071CF08FEF91E005C081309E4F34F481E09EEF38
:200EA0009093410180934001611582E078071CF08FEF91E005C061307E4F34F481E09EEFEE
:200EC00090933F0180933E018091860190918701029719F481E080938101DF91CF911F9100
:200EE0000F91FF90EF90DF90CF90BF90AF9008951F93CF93DF93182FEB011C161D0614F039
:200F000060E005C0611582E0780724F061E0812F0E945B0F193061F01A3099F48091800062
:200F2000806280938000D0938B00C0938A0009C080918000806880938000D0938900C0935D
:200F40008800DF91CF911F9108958230910541F08330910539F0019741F480911E0107C03D
:200F60000C94000180911D0102C08091210180938A0108951F920F920FB60F9211248F9362
:200F80009F93AF93BF9381E080931A018091930190919401A0919501B09196010196A11DAD
:200FA000B11D8093930190939401A0939501B093960180918F0190919001A0919101B0910A
:200FC00092010196A11DB11D80938F0190939001A0939101B0939201BF91AF919F918F9189
:200FE0000F900FBE0F901F9018951F920F920FB60F9211248F939F93809188018F5F8093AE
:20100000880186E08093B200809188018536C8F01092880180918A0190E00090890102C0FC
:20102000959587950A94E2F780FD2D9A80FF2D98809189018F5F80938901883011F41092E6
:2010400089019F918F910F900FBE0F901F9018951F920F920FB60F9211242F933F934F93EC
:201060005F936F938F939F93EF93FF93609178008091790090911A019923D1F090918001C6
:20108000282F30E0462F50E0322F2227242B352B911108C030937F0120937E0191E0909378
:2010A000800106C030937D0120937C0110928001909181019230C8F090911A01911115C085
:2010C0004091810190E0262F30E0443008F03FC0E0918101F0E0982F8827822B932BEE0FDC
:2010E000FF1FEE58FE4F9183808380911A01882381F080918101882361F0809181018F5FD0
:201100008093810180917C0090918101887F892B0CC080918001811104C080917C00887F07
:2011200004C080917C00887F816080937C0080911A018823E1F0809181018823C1F01092AE
:201140001A0180917A00806480937A0010C0E0918101F0E0982F8827822B932BEE0FFF1FE9
:20116000EE58FE4F9183808310928101BECFFF91EF919F918F916F915F914F913F912F9154
:201180000F900FBE0F901F901895EAEAF0E08591949190939801809397018CE690E090939D
:2011A0009A018093990182E080939B0110929C0110929D011092A00110929F010895AF92F4
:2011C000BF92CF92DF92EF92FF920F931F93CF93DF9326E040E05BE460E070E08DEA91E0D5
:2011E0000E949D1060E08EE00E94220F60E08FE00E94220F62E080E10E94220F62E081E183
:201200000E94220F62E082E10E94220F60E083E10E94220F62E087E00E94220F62E084E0EA
:201220000E94220F62E085E00E94220F61E082E00E94220F61E083E00E94220F61E086E0CD
:201240000E94220F61E089E00E94220F61E08AE00E94220F61E08DE00E94220F61E08BE093
:201260000E94220F84E00E94910F21E0892B09F020E02093840185E00E94910F21E0892BB3
:2012800009F020E02093830180918401882319F021111092830187E00E94910F21E0892B1E
:2012A00009F020E020938201222341F060E080E10E94220F60E081E10E94220F809183010B
:2012C000882349F08DEC91E0909345018093440183E39EEF08C086EE91E090934501809363
:2012E00044018AE19EEF90934301809342018091B0008C7F8093B0008091B100877F80938A
:20130000B1008091B10084608093B1008091B1008C7F8093B10086E08093B2008091700075
:201320008160809370008091210180938A01EE24E394F12CC2E0D0E0BB24B39483E0C82E01
:20134000D12C8091860190918701892B09F0A0C08DEA91E00E94BA0F892BB9F004E010E0BE
:201360008DEA91E00E94D30F81111F5F0150C1F7143059F4F0928701E092860142E050E002
:201380006DE870E082E10E94A3018091860190918701892B41F08091860190918701892BE4
:2013A00009F059C034C0809182018823A1F31AE0A12E82E00E94DC0E8C0183E00E94DC0E21
:2013C00020918401222371F0085E11400F321105D8F4885E91408F97B8F4D0938701C09390
:2013E000860112C0015A11090F32110568F4D0938701C0938601815A91098F9718F410925E
:20140000570102C0B0925701AA9499F6C4CF0E948B021AE02091680130916901309319016D
:20142000209318018091660190916701909317018093160140918301215233404423A1F047
:2014400027373540C8F064E170E080E090E00E94790E1150F9F68091860190918701892B2E
:2014600081F40E94A0020DC02737354060F7815293408737954038F7D0928701C092860191
:20148000E2CF64E670E080E090E00E94790E59CFC0E285E00E94DC0E20914601309147014C
:2014A000280F391F309347012093460161E070E080E090E00E94790EC15059F76091460175
:2014C00070914701B5E076956795BA95E1F770934701609346016931710518F48AE090E085
:2014E00006C0693E43E0740738F08FEF90E0909349018093480120C080E090E01F921F92F0
:201500001F922AE52F93FAE0AF2EB12CC12CD12C18EEE12E13E0F12E00E010E029E130E0BA
:2015200040E050E00E94CC1170934901609348010F900F900F900F90609148017091490152
:2015400080E090E00E94571223E333E343E750E40E94E5120E942612709353016093520126
:20156000AB0141505E4F50935101409350012FEF31E0261B370B30934D0120934C01509382
:201580004F0140934E0130934B0120934A01809180008E7F80938000809180008260809315
:2015A000800080918100877F80938100809181008F7E809381008091810081608093810045
:2015C000809181008D7F80938100809181008B7F8093810080916F00816080936F008091B5
:2015E0007A00887F846080937A0080917A00886080937A0080917A00806280937A008091EE
:201600007B00887F866080937B0080917C00806480937C0080917C00877F80937C008DEA3B
:2016200091E00E94BA0F892B29F08DEA91E00E94D30FF5CFDF91CF911F910F91FF90EF90A3
:20164000DF90CF90BF90AF9008951F93CF93DF9380915401811109C082E10E94910F21E0A4
:20166000892B09F420E0822F01C080E080931B01811104C0D0E410ECC1E016C081E08093C7
:2016800063018093620129C08DEA91E00E94D30F8093550118167CF480930D0180930B01D4
:2016A000C0936301C09362018DEA91E00E94BA0F892B51F710C0882329F080930C018093A7
:2016C0000A01EECF1092630110926201D0930D0110930C01E9CF1092540180911C0188238E
:2016E00051F090E490930D0180EC80930C0190930B0180930A01DF91CF911F9108950F936C
:201700001F93CF93DF938091930190919401A0919501B09196014097A105B105F0F1109293
:20172000930110929401109295011092960180918601909187018230910541F0833091056A
:2017400079F0019779F40E94250B0CC080918401882319F00E94160605C00E94DD0402C06B
:201760000E94290380918601909187018230910541F08330910579F0019779F40E94A902DD
:201780000CC080918401882319F00E94A00605C00E94730502C00E942C0480918F019091B6
:2017A0009001A0919101B0919201892B8A2B8B2B09F4E7C110928F011092900110929101A4
:2017C00010929201F89480917E0190917F0120917C0130917D017894A0914001B0914101A9
:2017E0004091380150913901BD01641B750B70933D0160933C01E0913E01F0913F01409154
:20180000360150913701EF01C41BD50BAE01D0933B01C0933A01693071053CF06091380188
:2018200070913901685F7F4F09C0683F7F4F5CF46091380170913901685071097093390176
:201840006093380104C0B0933901A0933801493051053CF04091360150913701485F5F4F3E
:2018600009C0483F5F4F5CF4409136015091370148505109509337014093360104C0F0939B
:201880003701E0933601409138015091390157FF03C01092350103C041E040933501409192
:2018A00036015091370157FF03C01092340103C041E040933401409183014423A9F12091F5
:2018C0003501222379F020914C0130914D0182179307E4F02091500130915101281739077C
:2018E000F4F407C020915001309151012817390734F4809138019091390101960CC02091C4
:201900004C0130914D01821793074CF4809138019091390101979093390180933801809101
:201920003801909139015CC040913501442379F040914C0150914D0184179507E4F04091F7
:2019400050015091510148175907F4F407C040915001509151014817590734F4809138010F
:201960009091390101960CC040914C0150914D01841795074CF480913801909139010197A8
:20198000909339018093380180913401882379F080914E0190914F0182179307E4F080915B
:2019A0004A0190914B0128173907F4F407C080914A0190914B012817390734F48091360189
:2019C0009091370101960CC080914E0190914F01821793074CF480913601909137010197CE
:2019E00090933701809336018091380190913901811592401CF08FEF91E009C08091380127
:201A00009091390181309E4F34F481E09EEF909339018093380180913601909137018115D7
:201A200092401CF08FEF91E009C0809136019091370181309E4F34F481E09EEF9093370160
:201A4000809336018091380190913901873E9F4FB4F4109235015A9820913801309139018D
:201A6000809142019091430128173907ECF060913801709139017195619571092CC080917A
:201A80003801909139014A9704F181E0809335015A9A2091380130913901809144019091E2
:201AA00045018217930764F4809180008068809380008FEF91E090938900809388000EC045
:201AC000609138017091390106C081E0809335015A9A60E070E089E00E94780780913601DB
:201AE00090913701873E9F4FCCF4109234015B9820913601309137018091420190914301B6
:201B0000281739071CF46FEF71E028C0609136017091370171956195710920C080913601A0
:201B2000909137014A97A4F081E0809334015B9A209136013091370180914401909145019B
:201B40008217930704F3609136017091370106C081E0809334015B9A60E070E08AE00E94FA
:201B6000780780913801909139019093410180934001809136019091370190933F01809371
:201B80003E010E94560E00918B0110918C0120918D0130918E01601B710B820B930B613271
:201BA000714A8740910598F10E94560E60938B0170938C0180938D0190938E0180916301A7
:201BC000882391F080916201882371F010921C01109263011092620180918601909187014E
:201BE0000E94A50761E00CC081E080931C0110926301109262018091210180938A0160E0DD
:201C000086E0DF91CF911F910F910C945B0FDF91CF911F910F9108951F920F920FB60F92BF
:201C200011242F933F938F939F93AF93BF938091A5019091A601A091A701B091A8013091F0
:201C4000A40123E0230F2D3720F40196A11DB11D05C026E8230F0296A11DB11D2093A4018E
:201C60008093A5019093A601A093A701B093A8018091A9019091AA01A091AB01B091AC01C8
:201C80000196A11DB11D8093A9019093AA01A093AB01B093AC01BF91AF919F918F913F9117
:201CA0002F910F900FBE0F901F9018953FB7F8948091A9019091AA01A091AB01B091AC0129
:201CC00026B5A89B05C02F3F19F00196A11DB11D3FBF6627782F892F9A2F620F711D811D37
:201CE000911D42E0660F771F881F991F4A95D1F70895CF92DF92EF92FF92CF93DF936B0142
:201D00007C010E94560EEB01C114D104E104F10489F00E9425120E94560E6C1B7D0B683EC3
:201D2000734090F381E0C81AD108E108F108C851DC4FEACFDF91CF91FF90EF90DF90CF90C6
:201D40000895789484B5826084BD84B5816084BD85B5826085BD85B5816085BDEEE6F0E0C4
:201D6000808181608083E1E8F0E01082808182608083808181608083E0E8F0E0808181600E
:201D80008083E1EBF0E0808184608083E0EBF0E0808181608083EAE7F0E0808184608083B3
:201DA0008081826080838081816080838081806880831092C10008958E3008F08E508770E1
:201DC0002091220190E4299F90011124822B80937C0080917A00806480937A0080917A006A
:201DE00086FDFCCF809178002091790090E0922B0895833081F028F4813099F08230A1F05B
:201E000008958730A9F08830B9F08430D1F4809180008F7D03C0809180008F778093800071
:201E2000089584B58F7702C084B58F7D84BD08958091B0008F7703C08091B0008F7D809377
:201E4000B0000895CF93DF9390E0FC01E458FF4F2491FC01E057FF4F8491882349F190E0C9
:201E6000880F991FFC01E854FF4FA591B49182559F4FFC01C591D4919FB7611108C0F89478
:201E80008C91209582238C93888182230AC0623051F4F8948C91322F309583238C938881C0
:201EA000822B888304C0F8948C91822B8C939FBFDF91CF9108950F931F93CF93DF931F928D
:201EC000CDB7DEB7282F30E0F901E859FF4F8491F901E458FF4F1491F901E057FF4F0491A7
:201EE0000023C9F0882321F069830E94F90E6981E02FF0E0EE0FFF1FE255FF4FA591B491D1
:201F00009FB7F8948C91611103C01095812301C0812B8C939FBF0F90DF91CF911F910F919B
:201F20000895CF93DF93282F30E0F901E859FF4F8491F901E458FF4FD491F901E057FF4FC3
:201F4000C491CC2391F081110E94F90EEC2FF0E0EE0FFF1FEC55FF4FA591B4912C912D2364
:201F600081E090E021F480E002C080E090E0DF91CF910895FC01818D228D90E0805C9F4F28
:201F8000821B91098F7399270895FC01918D828D981731F0828DE80FF11D858D90E008957E
:201FA0008FEF9FEF0895FC01918D828D981761F0828DDF01A80FB11D5D968C91928D9F5FAD
:201FC0009F73928F90E008958FEF9FEF089587E591E1892B49F080E090E0892B29F00E940E
:201FE000571181110C9400000895FC01848DDF01A80FB11DA35ABF4F2C91848D90E0019657
:202000008F739927848FA689B7892C93A089B1898C9180648C93938D848D981306C002880E
:20202000F389E02D80818F7D80830895CF93DF93EC01888D8823C9F0EA89FB89808185FDB6
:2020400005C0A889B9898C9186FD0FC00FB607FCF5CF808185FFF2CFA889B9898C9185FFF3
:20206000EDCFCE010E94F50FE7CFDF91CF910895CF92DF92FF920F931F93CF93DF931F92D0
:20208000CDB7DEB76C0181E0D60158968C9358975B969C915B975C968C915C97981307C002
:2020A0005096ED91FC915197808185FD2EC0F601038D10E00F5F1F4F0F731127F02EF601B4
:2020C000848DF81211C00FB607FCF9CFD6015096ED91FC915197808185FFF1CFC6016983DC
:2020E0000E94F50F6981EBCF838DE80FF11DE35AFF4F6083D6015B960C935B975296ED9154
:20210000FC915397808180620CC0D6015696ED91FC91579760835096ED91FC915197808120
:202120008064808381E090E00F90DF91CF911F910F91FF90DF90CF900895BF92CF92DF920B
:20214000EF92FF92CF93DF93EC016A017B01B22EE889F98982E08083411581EE5807610503
:202160007105A1F060E079E08DE390E0A70196010E9458132150310941095109569547957D
:2021800037952795211580E1380798F0E889F989108260E874E88EE190E0A70196010E9470
:2021A000581321503109410951095695479537952795EC85FD853083EE85FF852083188E30
:2021C000EC89FD89B082EA89FB89808180618083EA89FB89808188608083EA89FB8980811B
:2021E00080688083EA89FB8980818F7D8083DF91CF91FF90EF90DF90CF90BF9008951F92A4
:202200000F920FB60F9211242F938F939F93EF93FF93E091BD01F091BE018081E091C301B3
:20222000F091C40182FD12C090818091C6018F5F8F732091C701821751F0E091C601F0E0D3
:20224000E355FE4F958F8093C60101C08081FF91EF919F918F912F910F900FBE0F901F905F
:2022600018951F920F920FB60F9211242F933F934F935F936F937F938F939F93AF93BF9360
:20228000EF93FF938DEA91E00E94F50FFF91EF91BF91AF919F918F917F916F915F914F91CC
:2022A0003F912F910F900FBE0F901F9018958DEA91E00E94BA0F21E0892B09F420E0822F71
:2022C00008951092B0011092AF0188EE93E0A0E0B0E08093B1019093B201A093B301B093FE
:2022E000B40187E291E09093AE018093AD0185EC90E09093BA018093B90184EC90E090932D
:20230000BC018093BB0180EC90E09093BE018093BD0181EC90E09093C0018093BF0182ECA0
:2023200090E09093C2018093C10186EC90E09093C4018093C3011092C6011092C70110925C
:20234000C8011092C9010895CF92DF92EF92FF920F931F93CF93DF937C016A01EB0100E0EB
:2023600010E00C151D0571F06991D701ED91FC910190F081E02DC7010995892B19F00F5F4C
:202380001F4FEFCFC801DF91CF911F910F91FF90EF90DF90CF9008954F925F926F927F92CB
:2023A000AF92BF92CF92DF92EF92FF920F931F93CF93DF93CDB7DEB729013A01621B730B06
:2023C000840B950B29893A894B895C892A193B094C095D09298B3A8B4B8B5C8B9B01AC01DF
:2023E00069897A898B899C890E944813E418F50806091709A80197010E947A132A0D3B1D8B
:202400004C1D5D1DCA01B901DF91CF911F910F91FF90EF90DF90CF90BF90AF907F906F90BC
:202420005F904F90089508950E94A10E0E9413120E94DF08C7EEDFE00E947F0B2097E1F3C8
:202440000E94E70FF9CF0C94B913089504D06894B111B5C0089598D088F09F5790F0B92F31
:202460009927B751A0F0D1F0660F771F881F991F1AF0BA95C9F712C0B13081F09FD0B1E09C
:2024800008959CC0672F782F8827B85F39F0B93FCCF3869577956795B395D9F73EF49095CE
:2024A0008095709561957F4F8F4F9F4F0895E89409C097FB3EF490958095709561957F4FC9
:2024C0008F4F9F4F9923A9F0F92F96E9BB279395F695879577956795B795F111F8CFFAF478
:2024E000BB0F11F460FF1BC06F5F7F4F8F4F9F4F16C0882311F096E911C0772321F09EE868
:20250000872F762F05C0662371F096E8862F70E060E02AF09A95660F771F881FDAF7880F8B
:202520009695879597F9089597F99F6780E870E060E008959FEF80EC089500240A94161677
:20254000170618060906089500240A9412161306140605060895092E0394000C11F4882345
:2025600052F0BB0F40F4BF2B11F460FF04C06F5F7F4F8F4F9F4F089557FD9058440F551F01
:2025800059F05F3F71F04795880F97FB991F61F09F3F79F087950895121613061406551F16
:2025A000F2CF4695F1DF08C0161617061806991FF1CF86957105610508940895E894BB277A
:2025C00066277727CB0197F908950BD0C4CFB5DF28F0BADF18F0952309F0A6CFABCF112447
:2025E000EECFCADFA0F3959FD1F3950F50E0551F629FF001729FBB27F00DB11D639FAA271F
:20260000F00DB11DAA1F649F6627B00DA11D661F829F2227B00DA11D621F739FB00DA11DA3
:20262000621F839FA00D611D221F749F3327A00D611D231F849F600D211D822F762F6A2FF4
:2026400011249F5750408AF0E1F088234AF0EE0FFF1FBB1F661F771F881F91505040A9F7C7
:202660009E3F510570F060CFAACF5F3FECF3983EDCF3869577956795B795F795E7959F5F88
:20268000C1F7FE2B880F911D9695879597F90895DB018F939F930E949913BF91AF91A29F51
:2026A000800D911DA39F900DB29F900D11240895A1E21A2EAA1BBB1BFD010DC0AA1FBB1F6C
:2026C000EE1FFF1FA217B307E407F50720F0A21BB30BE40BF50B661F771F881F991F1A94D3
:2026E00069F760957095809590959B01AC01BD01CF010895052E97FB1EF400940E94911321
:2027000057FD07D00E94581307FC03D04EF40C94911350954095309521953F4F4F4F5F4F16
:20272000089590958095709561957F4F8F4F9F4F08950E94AA13A59F900DB49F900DA49F1D
:20274000800D911D11240895EE0FFF1F0590F491E02D0994A29FB001B39FC001A39F700DC9
:20276000811D1124911DB29F700D811D1124911D0895CF93DF938230910510F482E090E0FA
:20278000E0914C02F0914D0220E030E0A0E0B0E0309739F14081518148175907B8F0481740
:2027A000590771F482819381109729F013969C938E9312972CC090934D0280934C0227C035
:2027C0002115310531F04217530718F0A901DB0101C0EF019A01BD01DF010280F381E02D3E
:2027E000D7CF21153105F9F0281B390B2430310580F48A819B816115710521F0FB01938323
:20280000828304C090934D0280934C02FE01329644C0FE01E20FF31F81939193225031096B
:20282000398328833AC020914A0230914B02232B41F4209102013091030130934B0220936D
:202840004A0220910001309101012115310541F42DB73EB74091040150910501241B350B01
:20286000E0914A02F0914B02E217F307A0F42E1B3F0B2817390778F0AC014E5F5F4F241789
:20288000350748F04E0F5F1F50934B0240934A028193919302C0E0E0F0E0CF01DF91CF9170
:2028A0000895CF93DF93009709F487C0FC01329713821282C0914C02D0914D02209781F462
:2028C00020813181280F391F80914A0290914B028217930779F5F0934B02E0934A026DC0EE
:2028E000DE0120E030E0AE17BF0750F412964D915C9113979D014115510509F1DA01F3CF1C
:20290000B383A28340815181840F951F8A179B0771F48D919C911197840F951F02969183F4
:20292000808312968D919C911397938382832115310529F4F0934D02E0934C023EC0D901E8
:202940001396FC93EE9312974D915D91A40FB51FEA17FB0779F480819181840F951F029660
:20296000D90111969C938E938281938113969C938E931297E0E0F0E08A819B81009719F076
:20298000FE01EC01F9CFCE01029628813981820F931F20914A0230914B022817390769F48F
:2029A000309729F410924D0210924C0202C013821282D0934B02C0934A02DF91CF910895AB
:2029C000F894FFCF00004E02800001000000C040C040DC05DC05DC05DC05DC05DC05010184
:2029E00001FF0F05015501000000003810A411BA0FD30FC50F161000FFFFFFFFFFFFFFFFD2
:202A0000FFFFFFFFFFFFFFFFFFFFFFFFFFFFFFFFFFFFFFFFFFFFFFFFFFFFFFFFFFFFFFFFD6
:202A2000FFFFFFFFFFFFFFFFFFFFFFFFFFFFFFFFFFFFFFFFFFFFFFFFFFFFFFFFFFFFFFFFB6
:202A4000FFFFFFFFFFFFFFFFFFFFFFFFFFFFFFFFFFFFFFFFFFFFFFFFFFFFFFFFFFFFFFFF96
:202A6000FFFFFFFFFFFFFFFFFFFFFFFFFFFFFFFFFFFFFFFFFFFFFFFFFFFFFFFFFFFFFFFF76
:207800000C94343C0C94513C0C94513C0C94513C0C94513C0C94513C0C94513C0C94513C1D
:207820000C94513C0C94513C0C94513C0C94513C0C94513C0C94513C0C94513C0C94513CE0
:207840000C94513C0C94513C0C94513C0C94513C0C94513C0C94513C0C94513C0C94513CC0
:207860000C94513C0C94513C11241FBECFEFD8E0DEBFCDBF11E0A0E0B1E0ECE9FFE702C07E
:2078800005900D92A230B107D9F712E0A2E0B1E001C01D92AD30B107E1F70E942D3D0C94CC
:2078A000CC3F0C94003C982F9595959595959595905D8F708A307CF0282F295A8091C000B5
:2078C00085FFFCCF9093C6008091C00085FFFCCF2093C6000895282F205DF0CF982F8091CF
:2078E000C00085FFFCCF9093C6000895EF92FF920F931F93EE24FF2487018091C00087FD7B
:2079000017C00894E11CF11C011D111D81E4E81682E4F8068FE0080780E0180770F3E09106
:207920000401F091050109958091C00087FFE9CF8091C6001F910F91FF90EF9008950E949A
:20794000763C982F8091C00085FFFCCF9093C60091362CF490330CF09053892F08959755DB
:20796000892F08951F930E949F3C182F0E949F3C1295107F810F1F9108951F93182F882308
:2079800021F00E94763C1150E1F71F9108951F93182F0E94763C803249F0809103018F5FC1
:2079A000809303018530C1F01F9108958091C00085FFFCCF84E18093C6008091C00085FF4A
:2079C000FCCF1093C6008091C00085FFFCCF80E18093C6001F910895E0910401F0910501CF
:2079E00009951F9108950E94763C803241F0809103018F5F80930301853081F00895809177
:207A0000C00085FFFCCF84E18093C6008091C00085FFFCCF80E18093C6000895E0910401AC
:207A2000F09105010995089540E951E08823A1F02D9A28EE33E0FA013197F1F72150304072
:207A4000D1F72D9828EE33E0FA013197F1F721503040D1F7815061F708953F924F925F92B3
:207A60006F927F928F929F92AF92BF92CF92DF92EF92FF920F931F93CF93DF93000080E1A3
:207A80008093C4001092C50088E18093C10086E08093C2005098589A259A81E00E94143D43
:207AA00024E1F22E9EE1E92E85E9D82E0FE0C02E10E1B12EAA24A394B1E49B2EA6E58A2E44
:207AC000F2E57F2EE0E26E2E79E4572E63E5462E50E5352E0E94763C8033B1F18133B9F187
:207AE000803409F46FC0813409F476C0823409F485C0853409F488C0803531F1823521F128
:207B0000813511F1853509F485C0863509F48DC0843609F496C0843709F403C1853709F46A
:207B200072C1863709F466C0809103018F5F80930301853079F6E0910401F0910501099559
:207B40000E94763C803351F60E94F33CC3CF0E94763C803249F78091C00085FFFCCFF0928C
:207B6000C6008091C00085FFFCCF9092C6008091C00085FFFCCF8092C6008091C00085FFEA
:207B8000FCCF7092C6008091C00085FFFCCF6092C6008091C00085FFFCCF5092C6008091A1
:207BA000C00085FFFCCF4092C6008091C00085FFFCCF3092C6008091C00085FFFCCFB09214
:207BC000C60088CF0E94763C863808F4BDCF0E94763C0E94F33C7ECF0E94763C803809F473
:207BE0009CC0813809F40BC1823809F43CC1883909F48FC080E00E94C73C6CCF84E10E949F
:207C0000BD3C0E94F33C66CF85E00E94BD3C0E94F33C60CF0E94763C809306010E94763CA3
:207C2000809307010E94F33C55CF0E94763C803309F41DC183E00E94BD3C80E00E94C73C4F
:207C400049CF0E94763C809309020E94763C8093080280910C028E7F80930C020E94763C88
:207C6000853409F415C18091080290910902892B89F000E010E00E94763CF801E85FFE4F53
:207C800080830F5F1F4F80910802909109020817190788F30E94763C803209F045CF8091E0
:207CA0000C0280FF01C16091060170910701660F771F7093070160930601A0910802B091E8
:207CC00009021097C9F0E8E0F1E09B01AD014E0F5F1FF999FECF32BD21BD819180BDFA9A6C
:207CE000F99A2F5F3F4FE417F50799F76A0F7B1F70930701609306018091C00085FFFCCF16
:207D0000F092C6008091C00085FFFCCFB092C600E1CE83E00E94C73CDDCE82E00E94C73C8A
:207D2000D9CE0E94763C809309020E94763C809308028091060190910701880F991F909306
:207D40000701809306010E94763C853409F4A6C080910C028E7F80930C020E94763C80323E
:207D600009F0B8CE8091C00085FFFCCFF092C600609108027091090261157105B9F140E05F
:207D800050E080910C02A82FA170B82FB27011C0BB2309F45CC0E0910601F0910701319613
:207DA000F0930701E09306014F5F5F4F46175707E8F4AA2369F3F999FECF209106013091CA
:207DC000070132BD21BDF89A90B58091C00085FFFCCF9093C6002F5F3F4F30930701209354
:207DE00006014F5F5F4F4617570718F38091C00085FDE5CE8091C00085FFF8CFE0CE81E029
:207E00000E94C73C67CE0E94763C803209F08CCE8091C00085FFFCCFF092C6008091C000F6
:207E200085FFFCCFE092C6008091C00085FFFCCFD092C6008091C00085FFFCCFC092C6003B
:207E40008091C00085FFFCCFB092C60043CEE0910601F091070194918091C00085FFFCCFA3
:207E60009093C6009CCF80E10E94C73C33CE0E94763C0E94763C182F0E94763C112309F433
:207E800083C0113009F484C08FE00E94C73C22CE80910C02816080930C02E5CE80910C0226
:207EA000816080930C0259CF809107018823880F880B8A2180930B0280910601909107019E
:207EC000880F991F90930701809306018091080280FF09C0809108029091090201969093AA
:207EE000090280930802F894F999FECF1127E0910601F0910701C8E0D1E0809108029091A1
:207F00000902103091F40091570001700130D9F303E000935700E895009157000170013067
:207F2000D9F301E100935700E895099019900091570001700130D9F301E000935700E8954C
:207F40001395103498F011270091570001700130D9F305E000935700E8950091570001707A
:207F60000130D9F301E100935700E8953296029709F0C7CF103011F00296E5CF11248091F8
:1E7F8000C00085FFB9CEBCCE8EE10E94C73CA2CD85E90E94C73C9ECDF894FFCF8000B3
:00000001FF
